8=FIX.4.2|9=89|35=A|34=1|49=UCHIDTS14|52=20160401-16:31:09.201|56=TTDS68O|96=12345678|98=0|108=60|141=Y|10=240|8=FIX.4.2|9=59|35=0|34=2|49=UCHIDTS14|52=20160401-16:32:09.185|56=TTDS68O|10=079|