8=FIX.4.2|9=88|35=A|34=1|49=CHIDTS15|52=20150325-01:15:38.594|56=TTDS68P|96=12345678|98=0|108=60|141=Y|10=173|