8=FIX.4.2|9=86|35=A|34=1|49=CHIUDTS|52=20150407-12:19:21.278|56=TTCV7O|96=12345678|98=0|108=60|141=Y|10=098|