8=FIX.4.2|9=89|35=A|34=1|49=UCHIDTS15|52=20150325-13:50:18.017|56=TTDS68O|96=12345678|98=0|108=60|141=Y|10=248|