8=FIX.4.2|9=89|35=A|34=1|49=UCHIDTS16|52=20160404-19:58:10.903|56=TTDS68O|96=12345678|98=0|108=60|141=Y|10=002|8=FIX.4.2|9=59|35=0|34=2|49=UCHIDTS16|52=20160404-19:59:10.311|56=TTDS68O|10=079|8=FIX.4.2|9=59|35=0|34=3|49=UCHIDTS16|52=20160404-20:00:10.448|56=TTDS68O|10=069|8=FIX.4.2|9=59|35=0|34=4|49=UCHIDTS16|52=20160404-20:01:10.901|56=TTDS68O|10=065|8=FIX.4.2|9=59|35=0|34=5|49=UCHIDTS16|52=20160404-20:02:10.910|56=TTDS68O|10=067|8=FIX.4.2|9=59|35=0|34=6|49=UCHIDTS16|52=20160404-20:03:10.920|56=TTDS68O|10=070|8=FIX.4.2|9=59|35=0|34=7|49=UCHIDTS16|52=20160404-20:04:10.928|56=TTDS68O|10=080|8=FIX.4.2|9=59|35=0|34=8|49=UCHIDTS16|52=20160404-20:05:10.939|56=TTDS68O|10=084|8=FIX.4.2|9=59|35=0|34=9|49=UCHIDTS16|52=20160404-20:06:10.951|56=TTDS68O|10=080|8=FIX.4.2|9=60|35=0|34=10|49=UCHIDTS16|52=20160404-20:07:10.959|56=TTDS68O|10=121|8=FIX.4.2|9=60|35=0|34=11|49=UCHIDTS16|52=20160404-20:08:10.969|56=TTDS68O|10=124|8=FIX.4.2|9=60|35=0|34=12|49=UCHIDTS16|52=20160404-20:09:10.462|56=TTDS68O|10=114|8=FIX.4.2|9=60|35=0|34=13|49=UCHIDTS16|52=20160404-20:10:10.492|56=TTDS68O|10=110|8=FIX.4.2|9=60|35=0|34=14|49=UCHIDTS16|52=20160404-20:11:10.473|56=TTDS68O|10=111|8=FIX.4.2|9=60|35=0|34=15|49=UCHIDTS16|52=20160404-20:12:10.654|56=TTDS68O|10=114|8=FIX.4.2|9=60|35=0|34=16|49=UCHIDTS16|52=20160404-20:13:10.003|56=TTDS68O|10=104|8=FIX.4.2|9=60|35=0|34=17|49=UCHIDTS16|52=20160404-20:14:10.013|56=TTDS68O|10=107|8=FIX.4.2|9=60|35=0|34=18|49=UCHIDTS16|52=20160404-20:15:10.021|56=TTDS68O|10=108|8=FIX.4.2|9=60|35=0|34=19|49=UCHIDTS16|52=20160404-20:16:10.030|56=TTDS68O|10=110|