8=FIX.4.2|9=89|35=A|34=1|49=UCHIDTS15|52=20150325-13:50:18.032|56=TTDS68P|96=12345678|98=0|108=60|141=Y|10=246|8=FIX.4.2|9=152|35=V|34=2|49=UCHIDTS15|52=20150325-13:50:20.386|56=TTDS68P|146=2|55=ES|167=FUT|200=201506|207=CME|262=1|263=1|264=1|265=1|266=Y|267=3|269=0|269=1|269=2|10=253|8=FIX.4.2|9=108|35=3|34=3|49=UCHIDTS15|52=20150325-13:50:20.489|56=TTDS68P|45=2|58=Required tag missing|371=262|372=Y|373=1|10=110|