8=FIX.4.2|9=89|35=A|34=1|49=UCHIDTS16|52=20160404-19:58:10.918|56=TTDS68P|96=12345678|98=0|108=60|141=Y|10=009|8=FIX.4.2|9=152|35=V|34=2|49=UCHIDTS16|52=20160404-19:58:14.352|56=TTDS68P|146=1|55=ES|167=FUT|200=201606|207=CME|262=1|263=1|264=1|265=1|266=Y|267=3|269=0|269=1|269=2|10=007|8=FIX.4.2|9=152|35=V|34=3|49=UCHIDTS16|52=20160404-19:58:19.784|56=TTDS68P|146=1|55=ES|167=FUT|200=201606|207=CME|262=2|263=1|264=1|265=1|266=Y|267=3|269=0|269=1|269=2|10=023|8=FIX.4.2|9=59|35=0|34=4|49=UCHIDTS16|52=20160404-19:59:19.886|56=TTDS68P|10=108|8=FIX.4.2|9=59|35=0|34=5|49=UCHIDTS16|52=20160404-20:00:19.895|56=TTDS68P|10=087|8=FIX.4.2|9=59|35=0|34=6|49=UCHIDTS16|52=20160404-20:01:19.904|56=TTDS68P|10=080|8=FIX.4.2|9=59|35=0|34=7|49=UCHIDTS16|52=20160404-20:02:19.913|56=TTDS68P|10=082|8=FIX.4.2|9=59|35=0|34=8|49=UCHIDTS16|52=20160404-20:03:19.923|56=TTDS68P|10=085|8=FIX.4.2|9=59|35=0|34=9|49=UCHIDTS16|52=20160404-20:04:19.932|56=TTDS68P|10=087|8=FIX.4.2|9=60|35=0|34=10|49=UCHIDTS16|52=20160404-20:05:19.942|56=TTDS68P|10=121|8=FIX.4.2|9=60|35=0|34=11|49=UCHIDTS16|52=20160404-20:06:19.953|56=TTDS68P|10=125|8=FIX.4.2|9=60|35=0|34=12|49=UCHIDTS16|52=20160404-20:07:19.963|56=TTDS68P|10=128|8=FIX.4.2|9=60|35=0|34=13|49=UCHIDTS16|52=20160404-20:08:19.972|56=TTDS68P|10=130|8=FIX.4.2|9=60|35=0|34=14|49=UCHIDTS16|52=20160404-20:09:19.981|56=TTDS68P|10=132|8=FIX.4.2|9=60|35=0|34=15|49=UCHIDTS16|52=20160404-20:10:19.986|56=TTDS68P|10=130|8=FIX.4.2|9=60|35=0|34=16|49=UCHIDTS16|52=20160404-20:11:19.992|56=TTDS68P|10=129|8=FIX.4.2|9=60|35=0|34=17|49=UCHIDTS16|52=20160404-20:12:19.997|56=TTDS68P|10=136|8=FIX.4.2|9=60|35=0|34=18|49=UCHIDTS16|52=20160404-20:13:19.007|56=TTDS68P|10=120|8=FIX.4.2|9=60|35=0|34=19|49=UCHIDTS16|52=20160404-20:14:19.016|56=TTDS68P|10=122|8=FIX.4.2|9=60|35=0|34=20|49=UCHIDTS16|52=20160404-20:15:19.025|56=TTDS68P|10=115|8=FIX.4.2|9=60|35=0|34=21|49=UCHIDTS16|52=20160404-20:16:19.033|56=TTDS68P|10=116|