8=FIX.4.2|9=89|35=A|34=1|49=UCHIDTS14|52=20160401-16:31:09.216|56=TTDS68P|96=12345678|98=0|108=60|141=Y|10=247|8=FIX.4.2|9=185|35=V|34=2|49=UCHIDTS14|52=20160401-16:31:13.356|56=TTDS68P|146=2|55=ES|167=FUT|200=201606|207=CME|55=ES|167=FUT|200=201612|207=CME|262=1|263=1|264=1|265=1|266=Y|267=3|269=0|269=1|269=2|10=179|8=FIX.4.2|9=59|35=0|34=3|49=UCHIDTS14|52=20160401-16:32:13.188|56=TTDS68P|10=079|