8=FIX.4.2|9=86|35=A|34=1|49=CHIUDTS|52=20150407-12:19:21.302|56=TTCV7P|96=12345678|98=0|108=60|141=Y|10=087|8=FIX.4.2|9=182|35=V|34=2|49=CHIUDTS|52=20150407-12:19:24.839|56=TTCV7P|146=2|55=ES|167=FUT|200=201506|207=CME|55=ES|167=FUT|200=201512|207=CME|262=1|263=1|264=1|265=1|266=Y|267=3|269=0|269=1|269=2|10=035|