8=FIX.4.2|9=89|35=A|34=1|49=UCHIDTS14|52=20160401-16:36:18.333|56=TTDS68O|96=12345678|98=0|108=60|141=Y|10=251|8=FIX.4.2|9=163|35=D|34=2|49=UCHIDTS14|52=20160401-16:36:28.722|56=TTDS68O|1=UCHIDTS1|11=1389|38=1|40=1|47=A|54=1|55=ES|59=0|60=20160401-16:36:28|167=FUT|200=201606|204=0|207=CME|10=204|