8=FIX.4.2|9=89|35=A|34=1|49=UCHIDTS14|52=20160401-16:36:18.371|56=TTDS68P|96=12345678|98=0|108=60|141=Y|10=254|